{
  "_format": "hh-sol-artifact-1",
  "contractName": "TrustlessProof",
  "sourceName": "contracts/TrustlessProof.sol",
  "abi": [
    {
      "anonymous": false,
      "inputs": [
        {
          "indexed": true,
          "internalType": "bytes32",
          "name": "proofId",
          "type": "bytes32"
        },
        {
          "indexed": true,
          "internalType": "address",
          "name": "owner",
          "type": "address"
        },
        {
          "indexed": false,
          "internalType": "string",
          "name": "publicKey",
          "type": "string"
        },
        {
          "indexed": false,
          "internalType": "string",
          "name": "dataHash",
          "type": "string"
        },
        {
          "indexed": false,
          "internalType": "uint256",
          "name": "timestamp",
          "type": "uint256"
        }
      ],
      "name": "ProofStored",
      "type": "event"
    },
    {
      "inputs": [
        {
          "internalType": "bytes32",
          "name": "proofId",
          "type": "bytes32"
        }
      ],
      "name": "getProof",
      "outputs": [
        {
          "internalType": "address",
          "name": "owner",
          "type": "address"
        },
        {
          "internalType": "string",
          "name": "publicKey",
          "type": "string"
        },
        {
          "internalType": "string",
          "name": "dataHash",
          "type": "string"
        },
        {
          "internalType": "uint256",
          "name": "timestamp",
          "type": "uint256"
        }
      ],
      "stateMutability": "view",
      "type": "function"
    },
    {
      "inputs": [
        {
          "internalType": "bytes32",
          "name": "",
          "type": "bytes32"
        }
      ],
      "name": "proofs",
      "outputs": [
        {
          "internalType": "address",
          "name": "owner",
          "type": "address"
        },
        {
          "internalType": "string",
          "name": "publicKey",
          "type": "string"
        },
        {
          "internalType": "string",
          "name": "dataHash",
          "type": "string"
        },
        {
          "internalType": "uint256",
          "name": "timestamp",
          "type": "uint256"
        }
      ],
      "stateMutability": "view",
      "type": "function"
    },
    {
      "inputs": [
        {
          "internalType": "string",
          "name": "publicKey",
          "type": "string"
        },
        {
          "internalType": "string",
          "name": "dataHash",
          "type": "string"
        }
      ],
      "name": "storeProof",
      "outputs": [],
      "stateMutability": "nonpayable",
      "type": "function"
    }
  ],
  "bytecode": "0x608060405234801561001057600080fd5b50610dd6806100206000396000f3fe608060405234801561001057600080fd5b50600436106100415760003560e01c80631b80bb3a146100465780633a499d3514610079578063444d95b014610095575b600080fd5b610060600480360381019061005b919061062e565b6100c8565b6040516100709493929190610745565b60405180910390f35b610093600480360381019061008e91906108cd565b6102de565b005b6100af60048036038101906100aa919061062e565b610484565b6040516100bf9493929190610745565b60405180910390f35b60006060806000806000808781526020019081526020016000206040518060800160405290816000820160009054906101000a900473ffffffffffffffffffffffffffffffffffffffff1673ffffffffffffffffffffffffffffffffffffffff1673ffffffffffffffffffffffffffffffffffffffff16815260200160018201805461015390610974565b80601f016020809104026020016040519081016040528092919081815260200182805461017f90610974565b80156101cc5780601f106101a1576101008083540402835291602001916101cc565b820191906000526020600020905b8154815290600101906020018083116101af57829003601f168201915b505050505081526020016002820180546101e590610974565b80601f016020809104026020016040519081016040528092919081815260200182805461021190610974565b801561025e5780601f106102335761010080835404028352916020019161025e565b820191906000526020600020905b81548152906001019060200180831161024157829003601f168201915b50505050508152602001600382015481525050905060008160600151036102ba576040517f08c379a00000000000000000000000000000000000000000000000000000000081526004016102b1906109f1565b60405180910390fd5b80600001518160200151826040015183606001519450945094509450509193509193565b600082826040516020016102f3929190610a4d565b60405160208183030381529060405280519060200120905060008060008381526020019081526020016000206003015414610363576040517f08c379a000000000000000000000000000000000000000000000000000000000815260040161035a90610abd565b60405180910390fd5b60405180608001604052803373ffffffffffffffffffffffffffffffffffffffff1681526020018481526020018381526020014281525060008083815260200190815260200160002060008201518160000160006101000a81548173ffffffffffffffffffffffffffffffffffffffff021916908373ffffffffffffffffffffffffffffffffffffffff16021790555060208201518160010190816104089190610c89565b50604082015181600201908161041e9190610c89565b50606082015181600301559050503373ffffffffffffffffffffffffffffffffffffffff16817f97a2fa9aa4d20412a9fe2fd4e3a1089de1c24a14f8ea847d8366a796de46a01d85854260405161047793929190610d5b565b60405180910390a3505050565b60006020528060005260406000206000915090508060000160009054906101000a900473ffffffffffffffffffffffffffffffffffffffff16908060010180546104cd90610974565b80601f01602080910402602001604051908101604052809291908181526020018280546104f990610974565b80156105465780601f1061051b57610100808354040283529160200191610546565b820191906000526020600020905b81548152906001019060200180831161052957829003601f168201915b50505050509080600201805461055b90610974565b80601f016020809104026020016040519081016040528092919081815260200182805461058790610974565b80156105d45780601f106105a9576101008083540402835291602001916105d4565b820191906000526020600020905b8154815290600101906020018083116105b757829003601f168201915b5050505050908060030154905084565b6000604051905090565b600080fd5b600080fd5b6000819050919050565b61060b816105f8565b811461061657600080fd5b50565b60008135905061062881610602565b92915050565b600060208284031215610644576106436105ee565b5b600061065284828501610619565b91505092915050565b600073ffffffffffffffffffffffffffffffffffffffff82169050919050565b60006106868261065b565b9050919050565b6106968161067b565b82525050565b600081519050919050565b600082825260208201905092915050565b60005b838110156106d65780820151818401526020810190506106bb565b60008484015250505050565b6000601f19601f8301169050919050565b60006106fe8261069c565b61070881856106a7565b93506107188185602086016106b8565b610721816106e2565b840191505092915050565b6000819050919050565b61073f8161072c565b82525050565b600060808201905061075a600083018761068d565b818103602083015261076c81866106f3565b9050818103604083015261078081856106f3565b905061078f6060830184610736565b95945050505050565b600080fd5b600080fd5b7f4e487b7100000000000000000000000000000000000000000000000000000000600052604160045260246000fd5b6107da826106e2565b810181811067ffffffffffffffff821117156107f9576107f86107a2565b5b80604052505050565b600061080c6105e4565b905061081882826107d1565b919050565b600067ffffffffffffffff821115610838576108376107a2565b5b610841826106e2565b9050602081019050919050565b82818337600083830152505050565b600061087061086b8461081d565b610802565b90508281526020810184848401111561088c5761088b61079d565b5b61089784828561084e565b509392505050565b600082601f8301126108b4576108b3610798565b5b81356108c484826020860161085d565b91505092915050565b600080604083850312156108e4576108e36105ee565b5b600083013567ffffffffffffffff811115610902576109016105f3565b5b61090e8582860161089f565b925050602083013567ffffffffffffffff81111561092f5761092e6105f3565b5b61093b8582860161089f565b9150509250929050565b7f4e487b7100000000000000000000000000000000000000000000000000000000600052602260045260246000fd5b6000600282049050600182168061098c57607f821691505b60208210810361099f5761099e610945565b5b50919050565b7f50726f6f6620646f6573206e6f74206578697374000000000000000000000000600082015250565b60006109db6014836106a7565b91506109e6826109a5565b602082019050919050565b60006020820190508181036000830152610a0a816109ce565b9050919050565b600081905092915050565b6000610a278261069c565b610a318185610a11565b9350610a418185602086016106b8565b80840191505092915050565b6000610a598285610a1c565b9150610a658284610a1c565b91508190509392505050565b7f50726f6f6620616c726561647920657869737473000000000000000000000000600082015250565b6000610aa76014836106a7565b9150610ab282610a71565b602082019050919050565b60006020820190508181036000830152610ad681610a9a565b9050919050565b60008190508160005260206000209050919050565b60006020601f8301049050919050565b600082821b905092915050565b600060088302610b3f7fffffffffffffffffffffffffffffffffffffffffffffffffffffffffffffffff82610b02565b610b498683610b02565b95508019841693508086168417925050509392505050565b6000819050919050565b6000610b86610b81610b7c8461072c565b610b61565b61072c565b9050919050565b6000819050919050565b610ba083610b6b565b610bb4610bac82610b8d565b848454610b0f565b825550505050565b600090565b610bc9610bbc565b610bd4818484610b97565b505050565b5b81811015610bf857610bed600082610bc1565b600181019050610bda565b5050565b601f821115610c3d57610c0e81610add565b610c1784610af2565b81016020851015610c26578190505b610c3a610c3285610af2565b830182610bd9565b50505b505050565b600082821c905092915050565b6000610c6060001984600802610c42565b1980831691505092915050565b6000610c798383610c4f565b9150826002028217905092915050565b610c928261069c565b67ffffffffffffffff811115610cab57610caa6107a2565b5b610cb58254610974565b610cc0828285610bfc565b600060209050601f831160018114610cf35760008415610ce1578287015190505b610ceb8582610c6d565b865550610d53565b601f198416610d0186610add565b60005b82811015610d2957848901518255600182019150602085019450602081019050610d04565b86831015610d465784890151610d42601f891682610c4f565b8355505b6001600288020188555050505b505050505050565b60006060820190508181036000830152610d7581866106f3565b90508181036020830152610d8981856106f3565b9050610d986040830184610736565b94935050505056fea2646970667358221220a868091e51a49fe179717d5b0dae10ad2ec261c223f9a997501bd12d984f51ea64736f6c63430008160033",
  "linkReferences": {},
  "deployedLinkReferences": {}
}