{"contracts/TrustlessProof.sol":{"TrustlessProof":{"abi":[{"anonymous":false,"inputs":[{"indexed":true,"internalType":"bytes32","name":"proofId","type":"bytes32"},{"indexed":true,"internalType":"address","name":"owner","type":"address"},{"indexed":false,"internalType":"string","name":"publicKey","type":"string"},{"indexed":false,"internalType":"string","name":"dataHash","type":"string"},{"indexed":false,"internalType":"uint256","name":"timestamp","type":"uint256"}],"name":"ProofStored","type":"event"},{"inputs":[{"internalType":"bytes32","name":"proofId","type":"bytes32"}],"name":"getProof","outputs":[{"internalType":"address","name":"owner","type":"address"},{"internalType":"string","name":"publicKey","type":"string"},{"internalType":"string","name":"dataHash","type":"string"},{"internalType":"uint256","name":"timestamp","type":"uint256"}],"stateMutability":"view","type":"function"},{"inputs":[{"internalType":"bytes32","name":"","type":"bytes32"}],"name":"proofs","outputs":[{"internalType":"address","name":"owner","type":"address"},{"internalType":"string","name":"publicKey","type":"string"},{"internalType":"string","name":"dataHash","type":"string"},{"internalType":"uint256","name":"timestamp","type":"uint256"}],"stateMutability":"view","type":"function"},{"inputs":[{"internalType":"string","name":"publicKey","type":"string"},{"internalType":"string","name":"dataHash","type":"string"}],"name":"storeProof","outputs":[],"stateMutability":"nonpayable","type":"function"}],"evm":{"bytecode":{"linkReferences":{},"object":"608060405234801561001057600080fd5b50610dd6806100206000396000f3fe608060405234801561001057600080fd5b50600436106100415760003560e01c80631b80bb3a146100465780633a499d3514610079578063444d95b014610095575b600080fd5b610060600480360381019061005b919061062e565b6100c8565b6040516100709493929190610745565b60405180910390f35b610093600480360381019061008e91906108cd565b6102de565b005b6100af60048036038101906100aa919061062e565b610484565b6040516100bf9493929190610745565b60405180910390f35b60006060806000806000808781526020019081526020016000206040518060800160405290816000820160009054906101000a900473ffffffffffffffffffffffffffffffffffffffff1673ffffffffffffffffffffffffffffffffffffffff1673ffffffffffffffffffffffffffffffffffffffff16815260200160018201805461015390610974565b80601f016020809104026020016040519081016040528092919081815260200182805461017f90610974565b80156101cc5780601f106101a1576101008083540402835291602001916101cc565b820191906000526020600020905b8154815290600101906020018083116101af57829003601f168201915b505050505081526020016002820180546101e590610974565b80601f016020809104026020016040519081016040528092919081815260200182805461021190610974565b801561025e5780601f106102335761010080835404028352916020019161025e565b820191906000526020600020905b81548152906001019060200180831161024157829003601f168201915b50505050508152602001600382015481525050905060008160600151036102ba576040517f08c379a00000000000000000000000000000000000000000000000000000000081526004016102b1906109f1565b60405180910390fd5b80600001518160200151826040015183606001519450945094509450509193509193565b600082826040516020016102f3929190610a4d565b60405160208183030381529060405280519060200120905060008060008381526020019081526020016000206003015414610363576040517f08c379a000000000000000000000000000000000000000000000000000000000815260040161035a90610abd565b60405180910390fd5b60405180608001604052803373ffffffffffffffffffffffffffffffffffffffff1681526020018481526020018381526020014281525060008083815260200190815260200160002060008201518160000160006101000a81548173ffffffffffffffffffffffffffffffffffffffff021916908373ffffffffffffffffffffffffffffffffffffffff16021790555060208201518160010190816104089190610c89565b50604082015181600201908161041e9190610c89565b50606082015181600301559050503373ffffffffffffffffffffffffffffffffffffffff16817f97a2fa9aa4d20412a9fe2fd4e3a1089de1c24a14f8ea847d8366a796de46a01d85854260405161047793929190610d5b565b60405180910390a3505050565b60006020528060005260406000206000915090508060000160009054906101000a900473ffffffffffffffffffffffffffffffffffffffff16908060010180546104cd90610974565b80601f01602080910402602001604051908101604052809291908181526020018280546104f990610974565b80156105465780601f1061051b57610100808354040283529160200191610546565b820191906000526020600020905b81548152906001019060200180831161052957829003601f168201915b50505050509080600201805461055b90610974565b80601f016020809104026020016040519081016040528092919081815260200182805461058790610974565b80156105d45780601f106105a9576101008083540402835291602001916105d4565b820191906000526020600020905b8154815290600101906020018083116105b757829003601f168201915b5050505050908060030154905084565b6000604051905090565b600080fd5b600080fd5b6000819050919050565b61060b816105f8565b811461061657600080fd5b50565b60008135905061062881610602565b92915050565b600060208284031215610644576106436105ee565b5b600061065284828501610619565b91505092915050565b600073ffffffffffffffffffffffffffffffffffffffff82169050919050565b60006106868261065b565b9050919050565b6106968161067b565b82525050565b600081519050919050565b600082825260208201905092915050565b60005b838110156106d65780820151818401526020810190506106bb565b60008484015250505050565b6000601f19601f8301169050919050565b60006106fe8261069c565b61070881856106a7565b93506107188185602086016106b8565b610721816106e2565b840191505092915050565b6000819050919050565b61073f8161072c565b82525050565b600060808201905061075a600083018761068d565b818103602083015261076c81866106f3565b9050818103604083015261078081856106f3565b905061078f6060830184610736565b95945050505050565b600080fd5b600080fd5b7f4e487b7100000000000000000000000000000000000000000000000000000000600052604160045260246000fd5b6107da826106e2565b810181811067ffffffffffffffff821117156107f9576107f86107a2565b5b80604052505050565b600061080c6105e4565b905061081882826107d1565b919050565b600067ffffffffffffffff821115610838576108376107a2565b5b610841826106e2565b9050602081019050919050565b82818337600083830152505050565b600061087061086b8461081d565b610802565b90508281526020810184848401111561088c5761088b61079d565b5b61089784828561084e565b509392505050565b600082601f8301126108b4576108b3610798565b5b81356108c484826020860161085d565b91505092915050565b600080604083850312156108e4576108e36105ee565b5b600083013567ffffffffffffffff811115610902576109016105f3565b5b61090e8582860161089f565b925050602083013567ffffffffffffffff81111561092f5761092e6105f3565b5b61093b8582860161089f565b9150509250929050565b7f4e487b7100000000000000000000000000000000000000000000000000000000600052602260045260246000fd5b6000600282049050600182168061098c57607f821691505b60208210810361099f5761099e610945565b5b50919050565b7f50726f6f6620646f6573206e6f74206578697374000000000000000000000000600082015250565b60006109db6014836106a7565b91506109e6826109a5565b602082019050919050565b60006020820190508181036000830152610a0a816109ce565b9050919050565b600081905092915050565b6000610a278261069c565b610a318185610a11565b9350610a418185602086016106b8565b80840191505092915050565b6000610a598285610a1c565b9150610a658284610a1c565b91508190509392505050565b7f50726f6f6620616c726561647920657869737473000000000000000000000000600082015250565b6000610aa76014836106a7565b9150610ab282610a71565b602082019050919050565b60006020820190508181036000830152610ad681610a9a565b9050919050565b60008190508160005260206000209050919050565b60006020601f8301049050919050565b600082821b905092915050565b600060088302610b3f7fffffffffffffffffffffffffffffffffffffffffffffffffffffffffffffffff82610b02565b610b498683610b02565b95508019841693508086168417925050509392505050565b6000819050919050565b6000610b86610b81610b7c8461072c565b610b61565b61072c565b9050919050565b6000819050919050565b610ba083610b6b565b610bb4610bac82610b8d565b848454610b0f565b825550505050565b600090565b610bc9610bbc565b610bd4818484610b97565b505050565b5b81811015610bf857610bed600082610bc1565b600181019050610bda565b5050565b601f821115610c3d57610c0e81610add565b610c1784610af2565b81016020851015610c26578190505b610c3a610c3285610af2565b830182610bd9565b50505b505050565b600082821c905092915050565b6000610c6060001984600802610c42565b1980831691505092915050565b6000610c798383610c4f565b9150826002028217905092915050565b610c928261069c565b67ffffffffffffffff811115610cab57610caa6107a2565b5b610cb58254610974565b610cc0828285610bfc565b600060209050601f831160018114610cf35760008415610ce1578287015190505b610ceb8582610c6d565b865550610d53565b601f198416610d0186610add565b60005b82811015610d2957848901518255600182019150602085019450602081019050610d04565b86831015610d465784890151610d42601f891682610c4f565b8355505b6001600288020188555050505b505050505050565b60006060820190508181036000830152610d7581866106f3565b90508181036020830152610d8981856106f3565b9050610d986040830184610736565b94935050505056fea2646970667358221220a868091e51a49fe179717d5b0dae10ad2ec261c223f9a997501bd12d984f51ea64736f6c63430008160033","opcodes":"PUSH1 0x80 PUSH1 0x40 MSTORE CALLVALUE DUP1 ISZERO PUSH2 0x10 JUMPI PUSH1 0x0 DUP1 REVERT JUMPDEST POP PUSH2 0xDD6 DUP1 PUSH2 0x20 PUSH1 0x0 CODECOPY PUSH1 0x0 RETURN INVALID PUSH1 0x80 PUSH1 0x40 MSTORE CALLVALUE DUP1 ISZERO PUSH2 0x10 JUMPI PUSH1 0x0 DUP1 REVERT JUMPDEST POP PUSH1 0x4 CALLDATASIZE LT PUSH2 0x41 JUMPI PUSH1 0x0 CALLDATALOAD PUSH1 0xE0 SHR DUP1 PUSH4 0x1B80BB3A EQ PUSH2 0x46 JUMPI DUP1 PUSH4 0x3A499D35 EQ PUSH2 0x79 JUMPI DUP1 PUSH4 0x444D95B0 EQ PUSH2 0x95 JUMPI JUMPDEST PUSH1 0x0 DUP1 REVERT JUMPDEST PUSH2 0x60 PUSH1 0x4 DUP1 CALLDATASIZE SUB DUP2 ADD SWAP1 PUSH2 0x5B SWAP2 SWAP1 PUSH2 0x62E JUMP JUMPDEST PUSH2 0xC8 JUMP JUMPDEST PUSH1 0x40 MLOAD PUSH2 0x70 SWAP5 SWAP4 SWAP3 SWAP2 SWAP1 PUSH2 0x745 JUMP JUMPDEST PUSH1 0x40 MLOAD DUP1 SWAP2 SUB SWAP1 RETURN JUMPDEST PUSH2 0x93 PUSH1 0x4 DUP1 CALLDATASIZE SUB DUP2 ADD SWAP1 PUSH2 0x8E SWAP2 SWAP1 PUSH2 0x8CD JUMP JUMPDEST PUSH2 0x2DE JUMP JUMPDEST STOP JUMPDEST PUSH2 0xAF PUSH1 0x4 DUP1 CALLDATASIZE SUB DUP2 ADD SWAP1 PUSH2 0xAA SWAP2 SWAP1 PUSH2 0x62E JUMP JUMPDEST PUSH2 0x484 JUMP JUMPDEST PUSH1 0x40 MLOAD PUSH2 0xBF SWAP5 SWAP4 SWAP3 SWAP2 SWAP1 PUSH2 0x745 JUMP JUMPDEST PUSH1 0x40 MLOAD DUP1 SWAP2 SUB SWAP1 RETURN JUMPDEST PUSH1 0x0 PUSH1 0x60 DUP1 PUSH1 0x0 DUP1 PUSH1 0x0 DUP1 DUP8 DUP2 MSTORE PUSH1 0x20 ADD SWAP1 DUP2 MSTORE PUSH1 0x20 ADD PUSH1 0x0 KECCAK256 PUSH1 0x40 MLOAD DUP1 PUSH1 0x80 ADD PUSH1 0x40 MSTORE SWAP1 DUP2 PUSH1 0x0 DUP3 ADD PUSH1 0x0 SWAP1 SLOAD SWAP1 PUSH2 0x100 EXP SWAP1 DIV PUSH20 0xFFFFFFFFFFFFFFFFFFFFFFFFFFFFFFFFFFFFFFFF AND PUSH20 0xFFFFFFFFFFFFFFFFFFFFFFFFFFFFFFFFFFFFFFFF AND PUSH20 0xFFFFFFFFFFFFFFFFFFFFFFFFFFFFFFFFFFFFFFFF AND DUP2 MSTORE PUSH1 0x20 ADD PUSH1 0x1 DUP3 ADD DUP1 SLOAD PUSH2 0x153 SWAP1 PUSH2 0x974 JUMP JUMPDEST DUP1 PUSH1 0x1F ADD PUSH1 0x20 DUP1 SWAP2 DIV MUL PUSH1 0x20 ADD PUSH1 0x40 MLOAD SWAP1 DUP2 ADD PUSH1 0x40 MSTORE DUP1 SWAP3 SWAP2 SWAP1 DUP2 DUP2 MSTORE PUSH1 0x20 ADD DUP3 DUP1 SLOAD PUSH2 0x17F SWAP1 PUSH2 0x974 JUMP JUMPDEST DUP1 ISZERO PUSH2 0x1CC JUMPI DUP1 PUSH1 0x1F LT PUSH2 0x1A1 JUMPI PUSH2 0x100 DUP1 DUP4 SLOAD DIV MUL DUP4 MSTORE SWAP2 PUSH1 0x20 ADD SWAP2 PUSH2 0x1CC JUMP JUMPDEST DUP3 ADD SWAP2 SWAP1 PUSH1 0x0 MSTORE PUSH1 0x20 PUSH1 0x0 KECCAK256 SWAP1 JUMPDEST DUP2 SLOAD DUP2 MSTORE SWAP1 PUSH1 0x1 ADD SWAP1 PUSH1 0x20 ADD DUP1 DUP4 GT PUSH2 0x1AF JUMPI DUP3 SWAP1 SUB PUSH1 0x1F AND DUP3 ADD SWAP2 JUMPDEST POP POP POP POP POP DUP2 MSTORE PUSH1 0x20 ADD PUSH1 0x2 DUP3 ADD DUP1 SLOAD PUSH2 0x1E5 SWAP1 PUSH2 0x974 JUMP JUMPDEST DUP1 PUSH1 0x1F ADD PUSH1 0x20 DUP1 SWAP2 DIV MUL PUSH1 0x20 ADD PUSH1 0x40 MLOAD SWAP1 DUP2 ADD PUSH1 0x40 MSTORE DUP1 SWAP3 SWAP2 SWAP1 DUP2 DUP2 MSTORE PUSH1 0x20 ADD DUP3 DUP1 SLOAD PUSH2 0x211 SWAP1 PUSH2 0x974 JUMP JUMPDEST DUP1 ISZERO PUSH2 0x25E JUMPI DUP1 PUSH1 0x1F LT PUSH2 0x233 JUMPI PUSH2 0x100 DUP1 DUP4 SLOAD DIV MUL DUP4 MSTORE SWAP2 PUSH1 0x20 ADD SWAP2 PUSH2 0x25E JUMP JUMPDEST DUP3 ADD SWAP2 SWAP1 PUSH1 0x0 MSTORE PUSH1 0x20 PUSH1 0x0 KECCAK256 SWAP1 JUMPDEST DUP2 SLOAD DUP2 MSTORE SWAP1 PUSH1 0x1 ADD SWAP1 PUSH1 0x20 ADD DUP1 DUP4 GT PUSH2 0x241 JUMPI DUP3 SWAP1 SUB PUSH1 0x1F AND DUP3 ADD SWAP2 JUMPDEST POP POP POP POP POP DUP2 MSTORE PUSH1 0x20 ADD PUSH1 0x3 DUP3 ADD SLOAD DUP2 MSTORE POP POP SWAP1 POP PUSH1 0x0 DUP2 PUSH1 0x60 ADD MLOAD SUB PUSH2 0x2BA JUMPI PUSH1 0x40 MLOAD PUSH32 0x8C379A000000000000000000000000000000000000000000000000000000000 DUP2 MSTORE PUSH1 0x4 ADD PUSH2 0x2B1 SWAP1 PUSH2 0x9F1 JUMP JUMPDEST PUSH1 0x40 MLOAD DUP1 SWAP2 SUB SWAP1 REVERT JUMPDEST DUP1 PUSH1 0x0 ADD MLOAD DUP2 PUSH1 0x20 ADD MLOAD DUP3 PUSH1 0x40 ADD MLOAD DUP4 PUSH1 0x60 ADD MLOAD SWAP5 POP SWAP5 POP SWAP5 POP SWAP5 POP POP SWAP2 SWAP4 POP SWAP2 SWAP4 JUMP JUMPDEST PUSH1 0x0 DUP3 DUP3 PUSH1 0x40 MLOAD PUSH1 0x20 ADD PUSH2 0x2F3 SWAP3 SWAP2 SWAP1 PUSH2 0xA4D JUMP JUMPDEST PUSH1 0x40 MLOAD PUSH1 0x20 DUP2 DUP4 SUB SUB DUP2 MSTORE SWAP1 PUSH1 0x40 MSTORE DUP1 MLOAD SWAP1 PUSH1 0x20 ADD KECCAK256 SWAP1 POP PUSH1 0x0 DUP1 PUSH1 0x0 DUP4 DUP2 MSTORE PUSH1 0x20 ADD SWAP1 DUP2 MSTORE PUSH1 0x20 ADD PUSH1 0x0 KECCAK256 PUSH1 0x3 ADD SLOAD EQ PUSH2 0x363 JUMPI PUSH1 0x40 MLOAD PUSH32 0x8C379A000000000000000000000000000000000000000000000000000000000 DUP2 MSTORE PUSH1 0x4 ADD PUSH2 0x35A SWAP1 PUSH2 0xABD JUMP JUMPDEST PUSH1 0x40 MLOAD DUP1 SWAP2 SUB SWAP1 REVERT JUMPDEST PUSH1 0x40 MLOAD DUP1 PUSH1 0x80 ADD PUSH1 0x40 MSTORE DUP1 CALLER PUSH20 0xFFFFFFFFFFFFFFFFFFFFFFFFFFFFFFFFFFFFFFFF AND DUP2 MSTORE PUSH1 0x20 ADD DUP5 DUP2 MSTORE PUSH1 0x20 ADD DUP4 DUP2 MSTORE PUSH1 0x20 ADD TIMESTAMP DUP2 MSTORE POP PUSH1 0x0 DUP1 DUP4 DUP2 MSTORE PUSH1 0x20 ADD SWAP1 DUP2 MSTORE PUSH1 0x20 ADD PUSH1 0x0 KECCAK256 PUSH1 0x0 DUP3 ADD MLOAD DUP2 PUSH1 0x0 ADD PUSH1 0x0 PUSH2 0x100 EXP DUP2 SLOAD DUP2 PUSH20 0xFFFFFFFFFFFFFFFFFFFFFFFFFFFFFFFFFFFFFFFF MUL NOT AND SWAP1 DUP4 PUSH20 0xFFFFFFFFFFFFFFFFFFFFFFFFFFFFFFFFFFFFFFFF AND MUL OR SWAP1 SSTORE POP PUSH1 0x20 DUP3 ADD MLOAD DUP2 PUSH1 0x1 ADD SWAP1 DUP2 PUSH2 0x408 SWAP2 SWAP1 PUSH2 0xC89 JUMP JUMPDEST POP PUSH1 0x40 DUP3 ADD MLOAD DUP2 PUSH1 0x2 ADD SWAP1 DUP2 PUSH2 0x41E SWAP2 SWAP1 PUSH2 0xC89 JUMP JUMPDEST POP PUSH1 0x60 DUP3 ADD MLOAD DUP2 PUSH1 0x3 ADD SSTORE SWAP1 POP POP CALLER PUSH20 0xFFFFFFFFFFFFFFFFFFFFFFFFFFFFFFFFFFFFFFFF AND DUP2 PUSH32 0x97A2FA9AA4D20412A9FE2FD4E3A1089DE1C24A14F8EA847D8366A796DE46A01D DUP6 DUP6 TIMESTAMP PUSH1 0x40 MLOAD PUSH2 0x477 SWAP4 SWAP3 SWAP2 SWAP1 PUSH2 0xD5B JUMP JUMPDEST PUSH1 0x40 MLOAD DUP1 SWAP2 SUB SWAP1 LOG3 POP POP POP JUMP JUMPDEST PUSH1 0x0 PUSH1 0x20 MSTORE DUP1 PUSH1 0x0 MSTORE PUSH1 0x40 PUSH1 0x0 KECCAK256 PUSH1 0x0 SWAP2 POP SWAP1 POP DUP1 PUSH1 0x0 ADD PUSH1 0x0 SWAP1 SLOAD SWAP1 PUSH2 0x100 EXP SWAP1 DIV PUSH20 0xFFFFFFFFFFFFFFFFFFFFFFFFFFFFFFFFFFFFFFFF AND SWAP1 DUP1 PUSH1 0x1 ADD DUP1 SLOAD PUSH2 0x4CD SWAP1 PUSH2 0x974 JUMP JUMPDEST DUP1 PUSH1 0x1F ADD PUSH1 0x20 DUP1 SWAP2 DIV MUL PUSH1 0x20 ADD PUSH1 0x40 MLOAD SWAP1 DUP2 ADD PUSH1 0x40 MSTORE DUP1 SWAP3 SWAP2 SWAP1 DUP2 DUP2 MSTORE PUSH1 0x20 ADD DUP3 DUP1 SLOAD PUSH2 0x4F9 SWAP1 PUSH2 0x974 JUMP JUMPDEST DUP1 ISZERO PUSH2 0x546 JUMPI DUP1 PUSH1 0x1F LT PUSH2 0x51B JUMPI PUSH2 0x100 DUP1 DUP4 SLOAD DIV MUL DUP4 MSTORE SWAP2 PUSH1 0x20 ADD SWAP2 PUSH2 0x546 JUMP JUMPDEST DUP3 ADD SWAP2 SWAP1 PUSH1 0x0 MSTORE PUSH1 0x20 PUSH1 0x0 KECCAK256 SWAP1 JUMPDEST DUP2 SLOAD DUP2 MSTORE SWAP1 PUSH1 0x1 ADD SWAP1 PUSH1 0x20 ADD DUP1 DUP4 GT PUSH2 0x529 JUMPI DUP3 SWAP1 SUB PUSH1 0x1F AND DUP3 ADD SWAP2 JUMPDEST POP POP POP POP POP SWAP1 DUP1 PUSH1 0x2 ADD DUP1 SLOAD PUSH2 0x55B SWAP1 PUSH2 0x974 JUMP JUMPDEST DUP1 PUSH1 0x1F ADD PUSH1 0x20 DUP1 SWAP2 DIV MUL PUSH1 0x20 ADD PUSH1 0x40 MLOAD SWAP1 DUP2 ADD PUSH1 0x40 MSTORE DUP1 SWAP3 SWAP2 SWAP1 DUP2 DUP2 MSTORE PUSH1 0x20 ADD DUP3 DUP1 SLOAD PUSH2 0x587 SWAP1 PUSH2 0x974 JUMP JUMPDEST DUP1 ISZERO PUSH2 0x5D4 JUMPI DUP1 PUSH1 0x1F LT PUSH2 0x5A9 JUMPI PUSH2 0x100 DUP1 DUP4 SLOAD DIV MUL DUP4 MSTORE SWAP2 PUSH1 0x20 ADD SWAP2 PUSH2 0x5D4 JUMP JUMPDEST DUP3 ADD SWAP2 SWAP1 PUSH1 0x0 MSTORE PUSH1 0x20 PUSH1 0x0 KECCAK256 SWAP1 JUMPDEST DUP2 SLOAD DUP2 MSTORE SWAP1 PUSH1 0x1 ADD SWAP1 PUSH1 0x20 ADD DUP1 DUP4 GT PUSH2 0x5B7 JUMPI DUP3 SWAP1 SUB PUSH1 0x1F AND DUP3 ADD SWAP2 JUMPDEST POP POP POP POP POP SWAP1 DUP1 PUSH1 0x3 ADD SLOAD SWAP1 POP DUP5 JUMP JUMPDEST PUSH1 0x0 PUSH1 0x40 MLOAD SWAP1 POP SWAP1 JUMP JUMPDEST PUSH1 0x0 DUP1 REVERT JUMPDEST PUSH1 0x0 DUP1 REVERT JUMPDEST PUSH1 0x0 DUP2 SWAP1 POP SWAP2 SWAP1 POP JUMP JUMPDEST PUSH2 0x60B DUP2 PUSH2 0x5F8 JUMP JUMPDEST DUP2 EQ PUSH2 0x616 JUMPI PUSH1 0x0 DUP1 REVERT JUMPDEST POP JUMP JUMPDEST PUSH1 0x0 DUP2 CALLDATALOAD SWAP1 POP PUSH2 0x628 DUP2 PUSH2 0x602 JUMP JUMPDEST SWAP3 SWAP2 POP POP JUMP JUMPDEST PUSH1 0x0 PUSH1 0x20 DUP3 DUP5 SUB SLT ISZERO PUSH2 0x644 JUMPI PUSH2 0x643 PUSH2 0x5EE JUMP JUMPDEST JUMPDEST PUSH1 0x0 PUSH2 0x652 DUP5 DUP3 DUP6 ADD PUSH2 0x619 JUMP JUMPDEST SWAP2 POP POP SWAP3 SWAP2 POP POP JUMP JUMPDEST PUSH1 0x0 PUSH20 0xFFFFFFFFFFFFFFFFFFFFFFFFFFFFFFFFFFFFFFFF DUP3 AND SWAP1 POP SWAP2 SWAP1 POP JUMP JUMPDEST PUSH1 0x0 PUSH2 0x686 DUP3 PUSH2 0x65B JUMP JUMPDEST SWAP1 POP SWAP2 SWAP1 POP JUMP JUMPDEST PUSH2 0x696 DUP2 PUSH2 0x67B JUMP JUMPDEST DUP3 MSTORE POP POP JUMP JUMPDEST PUSH1 0x0 DUP2 MLOAD SWAP1 POP SWAP2 SWAP1 POP JUMP JUMPDEST PUSH1 0x0 DUP3 DUP3 MSTORE PUSH1 0x20 DUP3 ADD SWAP1 POP SWAP3 SWAP2 POP POP JUMP JUMPDEST PUSH1 0x0 JUMPDEST DUP4 DUP2 LT ISZERO PUSH2 0x6D6 JUMPI DUP1 DUP3 ADD MLOAD DUP2 DUP5 ADD MSTORE PUSH1 0x20 DUP2 ADD SWAP1 POP PUSH2 0x6BB JUMP JUMPDEST PUSH1 0x0 DUP5 DUP5 ADD MSTORE POP POP POP POP JUMP JUMPDEST PUSH1 0x0 PUSH1 0x1F NOT PUSH1 0x1F DUP4 ADD AND SWAP1 POP SWAP2 SWAP1 POP JUMP JUMPDEST PUSH1 0x0 PUSH2 0x6FE DUP3 PUSH2 0x69C JUMP JUMPDEST PUSH2 0x708 DUP2 DUP6 PUSH2 0x6A7 JUMP JUMPDEST SWAP4 POP PUSH2 0x718 DUP2 DUP6 PUSH1 0x20 DUP7 ADD PUSH2 0x6B8 JUMP JUMPDEST PUSH2 0x721 DUP2 PUSH2 0x6E2 JUMP JUMPDEST DUP5 ADD SWAP2 POP POP SWAP3 SWAP2 POP POP JUMP JUMPDEST PUSH1 0x0 DUP2 SWAP1 POP SWAP2 SWAP1 POP JUMP JUMPDEST PUSH2 0x73F DUP2 PUSH2 0x72C JUMP JUMPDEST DUP3 MSTORE POP POP JUMP JUMPDEST PUSH1 0x0 PUSH1 0x80 DUP3 ADD SWAP1 POP PUSH2 0x75A PUSH1 0x0 DUP4 ADD DUP8 PUSH2 0x68D JUMP JUMPDEST DUP2 DUP2 SUB PUSH1 0x20 DUP4 ADD MSTORE PUSH2 0x76C DUP2 DUP7 PUSH2 0x6F3 JUMP JUMPDEST SWAP1 POP DUP2 DUP2 SUB PUSH1 0x40 DUP4 ADD MSTORE PUSH2 0x780 DUP2 DUP6 PUSH2 0x6F3 JUMP JUMPDEST SWAP1 POP PUSH2 0x78F PUSH1 0x60 DUP4 ADD DUP5 PUSH2 0x736 JUMP JUMPDEST SWAP6 SWAP5 POP POP POP POP POP JUMP JUMPDEST PUSH1 0x0 DUP1 REVERT JUMPDEST PUSH1 0x0 DUP1 REVERT JUMPDEST PUSH32 0x4E487B7100000000000000000000000000000000000000000000000000000000 PUSH1 0x0 MSTORE PUSH1 0x41 PUSH1 0x4 MSTORE PUSH1 0x24 PUSH1 0x0 REVERT JUMPDEST PUSH2 0x7DA DUP3 PUSH2 0x6E2 JUMP JUMPDEST DUP2 ADD DUP2 DUP2 LT PUSH8 0xFFFFFFFFFFFFFFFF DUP3 GT OR ISZERO PUSH2 0x7F9 JUMPI PUSH2 0x7F8 PUSH2 0x7A2 JUMP JUMPDEST JUMPDEST DUP1 PUSH1 0x40 MSTORE POP POP POP JUMP JUMPDEST PUSH1 0x0 PUSH2 0x80C PUSH2 0x5E4 JUMP JUMPDEST SWAP1 POP PUSH2 0x818 DUP3 DUP3 PUSH2 0x7D1 JUMP JUMPDEST SWAP2 SWAP1 POP JUMP JUMPDEST PUSH1 0x0 PUSH8 0xFFFFFFFFFFFFFFFF DUP3 GT ISZERO PUSH2 0x838 JUMPI PUSH2 0x837 PUSH2 0x7A2 JUMP JUMPDEST JUMPDEST PUSH2 0x841 DUP3 PUSH2 0x6E2 JUMP JUMPDEST SWAP1 POP PUSH1 0x20 DUP2 ADD SWAP1 POP SWAP2 SWAP1 POP JUMP JUMPDEST DUP3 DUP2 DUP4 CALLDATACOPY PUSH1 0x0 DUP4 DUP4 ADD MSTORE POP POP POP JUMP JUMPDEST PUSH1 0x0 PUSH2 0x870 PUSH2 0x86B DUP5 PUSH2 0x81D JUMP JUMPDEST PUSH2 0x802 JUMP JUMPDEST SWAP1 POP DUP3 DUP2 MSTORE PUSH1 0x20 DUP2 ADD DUP5 DUP5 DUP5 ADD GT ISZERO PUSH2 0x88C JUMPI PUSH2 0x88B PUSH2 0x79D JUMP JUMPDEST JUMPDEST PUSH2 0x897 DUP5 DUP3 DUP6 PUSH2 0x84E JUMP JUMPDEST POP SWAP4 SWAP3 POP POP POP JUMP JUMPDEST PUSH1 0x0 DUP3 PUSH1 0x1F DUP4 ADD SLT PUSH2 0x8B4 JUMPI PUSH2 0x8B3 PUSH2 0x798 JUMP JUMPDEST JUMPDEST DUP2 CALLDATALOAD PUSH2 0x8C4 DUP5 DUP3 PUSH1 0x20 DUP7 ADD PUSH2 0x85D JUMP JUMPDEST SWAP2 POP POP SWAP3 SWAP2 POP POP JUMP JUMPDEST PUSH1 0x0 DUP1 PUSH1 0x40 DUP4 DUP6 SUB SLT ISZERO PUSH2 0x8E4 JUMPI PUSH2 0x8E3 PUSH2 0x5EE JUMP JUMPDEST JUMPDEST PUSH1 0x0 DUP4 ADD CALLDATALOAD PUSH8 0xFFFFFFFFFFFFFFFF DUP2 GT ISZERO PUSH2 0x902 JUMPI PUSH2 0x901 PUSH2 0x5F3 JUMP JUMPDEST JUMPDEST PUSH2 0x90E DUP6 DUP3 DUP7 ADD PUSH2 0x89F JUMP JUMPDEST SWAP3 POP POP PUSH1 0x20 DUP4 ADD CALLDATALOAD PUSH8 0xFFFFFFFFFFFFFFFF DUP2 GT ISZERO PUSH2 0x92F JUMPI PUSH2 0x92E PUSH2 0x5F3 JUMP JUMPDEST JUMPDEST PUSH2 0x93B DUP6 DUP3 DUP7 ADD PUSH2 0x89F JUMP JUMPDEST SWAP2 POP POP SWAP3 POP SWAP3 SWAP1 POP JUMP JUMPDEST PUSH32 0x4E487B7100000000000000000000000000000000000000000000000000000000 PUSH1 0x0 MSTORE PUSH1 0x22 PUSH1 0x4 MSTORE PUSH1 0x24 PUSH1 0x0 REVERT JUMPDEST PUSH1 0x0 PUSH1 0x2 DUP3 DIV SWAP1 POP PUSH1 0x1 DUP3 AND DUP1 PUSH2 0x98C JUMPI PUSH1 0x7F DUP3 AND SWAP2 POP JUMPDEST PUSH1 0x20 DUP3 LT DUP2 SUB PUSH2 0x99F JUMPI PUSH2 0x99E PUSH2 0x945 JUMP JUMPDEST JUMPDEST POP SWAP2 SWAP1 POP JUMP JUMPDEST PUSH32 0x50726F6F6620646F6573206E6F74206578697374000000000000000000000000 PUSH1 0x0 DUP3 ADD MSTORE POP JUMP JUMPDEST PUSH1 0x0 PUSH2 0x9DB PUSH1 0x14 DUP4 PUSH2 0x6A7 JUMP JUMPDEST SWAP2 POP PUSH2 0x9E6 DUP3 PUSH2 0x9A5 JUMP JUMPDEST PUSH1 0x20 DUP3 ADD SWAP1 POP SWAP2 SWAP1 POP JUMP JUMPDEST PUSH1 0x0 PUSH1 0x20 DUP3 ADD SWAP1 POP DUP2 DUP2 SUB PUSH1 0x0 DUP4 ADD MSTORE PUSH2 0xA0A DUP2 PUSH2 0x9CE JUMP JUMPDEST SWAP1 POP SWAP2 SWAP1 POP JUMP JUMPDEST PUSH1 0x0 DUP2 SWAP1 POP SWAP3 SWAP2 POP POP JUMP JUMPDEST PUSH1 0x0 PUSH2 0xA27 DUP3 PUSH2 0x69C JUMP JUMPDEST PUSH2 0xA31 DUP2 DUP6 PUSH2 0xA11 JUMP JUMPDEST SWAP4 POP PUSH2 0xA41 DUP2 DUP6 PUSH1 0x20 DUP7 ADD PUSH2 0x6B8 JUMP JUMPDEST DUP1 DUP5 ADD SWAP2 POP POP SWAP3 SWAP2 POP POP JUMP JUMPDEST PUSH1 0x0 PUSH2 0xA59 DUP3 DUP6 PUSH2 0xA1C JUMP JUMPDEST SWAP2 POP PUSH2 0xA65 DUP3 DUP5 PUSH2 0xA1C JUMP JUMPDEST SWAP2 POP DUP2 SWAP1 POP SWAP4 SWAP3 POP POP POP JUMP JUMPDEST PUSH32 0x50726F6F6620616C726561647920657869737473000000000000000000000000 PUSH1 0x0 DUP3 ADD MSTORE POP JUMP JUMPDEST PUSH1 0x0 PUSH2 0xAA7 PUSH1 0x14 DUP4 PUSH2 0x6A7 JUMP JUMPDEST SWAP2 POP PUSH2 0xAB2 DUP3 PUSH2 0xA71 JUMP JUMPDEST PUSH1 0x20 DUP3 ADD SWAP1 POP SWAP2 SWAP1 POP JUMP JUMPDEST PUSH1 0x0 PUSH1 0x20 DUP3 ADD SWAP1 POP DUP2 DUP2 SUB PUSH1 0x0 DUP4 ADD MSTORE PUSH2 0xAD6 DUP2 PUSH2 0xA9A JUMP JUMPDEST SWAP1 POP SWAP2 SWAP1 POP JUMP JUMPDEST PUSH1 0x0 DUP2 SWAP1 POP DUP2 PUSH1 0x0 MSTORE PUSH1 0x20 PUSH1 0x0 KECCAK256 SWAP1 POP SWAP2 SWAP1 POP JUMP JUMPDEST PUSH1 0x0 PUSH1 0x20 PUSH1 0x1F DUP4 ADD DIV SWAP1 POP SWAP2 SWAP1 POP JUMP JUMPDEST PUSH1 0x0 DUP3 DUP3 SHL SWAP1 POP SWAP3 SWAP2 POP POP JUMP JUMPDEST PUSH1 0x0 PUSH1 0x8 DUP4 MUL PUSH2 0xB3F PUSH32 0xFFFFFFFFFFFFFFFFFFFFFFFFFFFFFFFFFFFFFFFFFFFFFFFFFFFFFFFFFFFFFFFF DUP3 PUSH2 0xB02 JUMP JUMPDEST PUSH2 0xB49 DUP7 DUP4 PUSH2 0xB02 JUMP JUMPDEST SWAP6 POP DUP1 NOT DUP5 AND SWAP4 POP DUP1 DUP7 AND DUP5 OR SWAP3 POP POP POP SWAP4 SWAP3 POP POP POP JUMP JUMPDEST PUSH1 0x0 DUP2 SWAP1 POP SWAP2 SWAP1 POP JUMP JUMPDEST PUSH1 0x0 PUSH2 0xB86 PUSH2 0xB81 PUSH2 0xB7C DUP5 PUSH2 0x72C JUMP JUMPDEST PUSH2 0xB61 JUMP JUMPDEST PUSH2 0x72C JUMP JUMPDEST SWAP1 POP SWAP2 SWAP1 POP JUMP JUMPDEST PUSH1 0x0 DUP2 SWAP1 POP SWAP2 SWAP1 POP JUMP JUMPDEST PUSH2 0xBA0 DUP4 PUSH2 0xB6B JUMP JUMPDEST PUSH2 0xBB4 PUSH2 0xBAC DUP3 PUSH2 0xB8D JUMP JUMPDEST DUP5 DUP5 SLOAD PUSH2 0xB0F JUMP JUMPDEST DUP3 SSTORE POP POP POP POP JUMP JUMPDEST PUSH1 0x0 SWAP1 JUMP JUMPDEST PUSH2 0xBC9 PUSH2 0xBBC JUMP JUMPDEST PUSH2 0xBD4 DUP2 DUP5 DUP5 PUSH2 0xB97 JUMP JUMPDEST POP POP POP JUMP JUMPDEST JUMPDEST DUP2 DUP2 LT ISZERO PUSH2 0xBF8 JUMPI PUSH2 0xBED PUSH1 0x0 DUP3 PUSH2 0xBC1 JUMP JUMPDEST PUSH1 0x1 DUP2 ADD SWAP1 POP PUSH2 0xBDA JUMP JUMPDEST POP POP JUMP JUMPDEST PUSH1 0x1F DUP3 GT ISZERO PUSH2 0xC3D JUMPI PUSH2 0xC0E DUP2 PUSH2 0xADD JUMP JUMPDEST PUSH2 0xC17 DUP5 PUSH2 0xAF2 JUMP JUMPDEST DUP2 ADD PUSH1 0x20 DUP6 LT ISZERO PUSH2 0xC26 JUMPI DUP2 SWAP1 POP JUMPDEST PUSH2 0xC3A PUSH2 0xC32 DUP6 PUSH2 0xAF2 JUMP JUMPDEST DUP4 ADD DUP3 PUSH2 0xBD9 JUMP JUMPDEST POP POP JUMPDEST POP POP POP JUMP JUMPDEST PUSH1 0x0 DUP3 DUP3 SHR SWAP1 POP SWAP3 SWAP2 POP POP JUMP JUMPDEST PUSH1 0x0 PUSH2 0xC60 PUSH1 0x0 NOT DUP5 PUSH1 0x8 MUL PUSH2 0xC42 JUMP JUMPDEST NOT DUP1 DUP4 AND SWAP2 POP POP SWAP3 SWAP2 POP POP JUMP JUMPDEST PUSH1 0x0 PUSH2 0xC79 DUP4 DUP4 PUSH2 0xC4F JUMP JUMPDEST SWAP2 POP DUP3 PUSH1 0x2 MUL DUP3 OR SWAP1 POP SWAP3 SWAP2 POP POP JUMP JUMPDEST PUSH2 0xC92 DUP3 PUSH2 0x69C JUMP JUMPDEST PUSH8 0xFFFFFFFFFFFFFFFF DUP2 GT ISZERO PUSH2 0xCAB JUMPI PUSH2 0xCAA PUSH2 0x7A2 JUMP JUMPDEST JUMPDEST PUSH2 0xCB5 DUP3 SLOAD PUSH2 0x974 JUMP JUMPDEST PUSH2 0xCC0 DUP3 DUP3 DUP6 PUSH2 0xBFC JUMP JUMPDEST PUSH1 0x0 PUSH1 0x20 SWAP1 POP PUSH1 0x1F DUP4 GT PUSH1 0x1 DUP2 EQ PUSH2 0xCF3 JUMPI PUSH1 0x0 DUP5 ISZERO PUSH2 0xCE1 JUMPI DUP3 DUP8 ADD MLOAD SWAP1 POP JUMPDEST PUSH2 0xCEB DUP6 DUP3 PUSH2 0xC6D JUMP JUMPDEST DUP7 SSTORE POP PUSH2 0xD53 JUMP JUMPDEST PUSH1 0x1F NOT DUP5 AND PUSH2 0xD01 DUP7 PUSH2 0xADD JUMP JUMPDEST PUSH1 0x0 JUMPDEST DUP3 DUP2 LT ISZERO PUSH2 0xD29 JUMPI DUP5 DUP10 ADD MLOAD DUP3 SSTORE PUSH1 0x1 DUP3 ADD SWAP2 POP PUSH1 0x20 DUP6 ADD SWAP5 POP PUSH1 0x20 DUP2 ADD SWAP1 POP PUSH2 0xD04 JUMP JUMPDEST DUP7 DUP4 LT ISZERO PUSH2 0xD46 JUMPI DUP5 DUP10 ADD MLOAD PUSH2 0xD42 PUSH1 0x1F DUP10 AND DUP3 PUSH2 0xC4F JUMP JUMPDEST DUP4 SSTORE POP JUMPDEST PUSH1 0x1 PUSH1 0x2 DUP9 MUL ADD DUP9 SSTORE POP POP POP JUMPDEST POP POP POP POP POP POP JUMP JUMPDEST PUSH1 0x0 PUSH1 0x60 DUP3 ADD SWAP1 POP DUP2 DUP2 SUB PUSH1 0x0 DUP4 ADD MSTORE PUSH2 0xD75 DUP2 DUP7 PUSH2 0x6F3 JUMP JUMPDEST SWAP1 POP DUP2 DUP2 SUB PUSH1 0x20 DUP4 ADD MSTORE PUSH2 0xD89 DUP2 DUP6 PUSH2 0x6F3 JUMP JUMPDEST SWAP1 POP PUSH2 0xD98 PUSH1 0x40 DUP4 ADD DUP5 PUSH2 0x736 JUMP JUMPDEST SWAP5 SWAP4 POP POP POP POP JUMP INVALID LOG2 PUSH5 0x6970667358 0x22 SLT KECCAK256 0xA8 PUSH9 0x91E51A49FE179717D JUMPDEST 0xD 0xAE LT 0xAD 0x2E 0xC2 PUSH2 0xC223 0xF9 0xA9 SWAP8 POP SHL 0xD1 0x2D SWAP9 0x4F MLOAD 0xEA PUSH5 0x736F6C6343 STOP ADDMOD AND STOP CALLER "},"methodIdentifiers":{"getProof(bytes32)":"1b80bb3a","proofs(bytes32)":"444d95b0","storeProof(string,string)":"3a499d35"}}}}}